:102000000080002049A3000025A3000045A3000094
:1020100000000000000000000000000000000000C0
:1020200000000000000000000000000045A30000C8
:10203000000000000000000045A300009DA3000078
:1020400045A3000045A30000AD48000091450000F5
:10205000E9A2000045A300002D5D0000416E0000D4
:1020600045A30000B1A0000045A3000045A3000067
:1020700089A0000045A30000C1A0000045A3000006
:1020800045A3000045A3000045A3000045A30000B0
:10209000DDB1000045A3000045A3000045A30000FA
:1020A00045A3000045A3000045A3000045A3000090
:1020B0000000000010B5064C2378002B07D1054B1B
:1020C000002B02D0044800E000BF0123237010BDA4
:1020D000E00100200000000044060100044B10B5A0
:1020E000002B03D00349044800E000BF10BDC046E8
:1020F00000000000E40100204406010070B5050066
:10210000074B14001868530A0268D6680A002900B1
:10211000B047002801D0200070BD01204042FBE7FD
:10212000B403002070B50500074B14001868530A6B
:10213000026816690A002900B047002801D0200073
:1021400070BD01204042FBE7B403002010B508F049
:102150002DF90122034BC018034B1860034B1A7072
:1021600010BDC04660EA0000300300200C020020D1
:1021700010B508F01BF9034BC018034B1860012081
:1021800010BDC04660EA00003003002010B5037B9C
:102190000400002B0ED10068002801D009F0ACFA31
:1021A0006068002801D009F0A7FAA068002801D0D3
:1021B00009F0A2FA200010BD104B10B51868036892
:1021C0005B6898470E4B1C682000243004F09CF894
:1021D000002812D08C239B00E01804F095F800280A
:1021E0000BD0206803685B689847002805D0002260
:1021F000631DDA7701235B42E36210BDB403002064
:10220000B003002010B5164B597EC909FCD1F0224D
:102210001869120502430F201A615A7882435A70D6
:10222000023008F06DFB092008F0C2FA0AF0B2F99A
:10223000011C09F053FC011C09F050FC0121041C95
:10224000112008F05DFBE621201C890509F0A0FEA5
:10225000044909F09DFE09F029FC80B210BDC0467A
:10226000004000420000C84210B50A2008F074FB8C
:10227000444244410D20E4B208F06EFB002801D135
:1022800002231C430B2008F067FB002801D1082320
:102290001C43052008F060FB002801D104231C43E7
:1022A000132008F059FB002801D110231C430720FC
:1022B00008F052FB002801D140231C430C2008F0F9
:1022C0004BFB002801D120231C43062008F044FBCF
:1022D000002801D180231C43200010BD04210D4A99
:1022E00013788B431370C0220B4B92005A805A789C
:1022F000D209FCD103325A605A78D209FCD121327A
:102300005A805A78D209FCD1044A0549136A0B4015
:102310001362704700500041000C00400004004070
:10232000D323FBFF30B50222002404231A4D85B0CD
:102330000292019400932800013B184903F058FAD7
:102340002A002621164802F06BF81723154D029437
:10235000013400931622280013490194013303F03D
:1023600047FA124B2900019380230822009310485A
:1023700001F036FC0F4804F04DFC0F4B0F481A00DB
:1023800003600C3218330E490473426083600D4AB7
:1023900009F0B6F905B030BDC4020020581800207D
:1023A000100300201C0200206018002080841E0002
:1023B0006802002048030020A8F10000FC01002072
:1023C0008D21000000000020F0B5182085B009F034
:1023D0008FF90500A64902F0EFFFA64BA64C1D6041
:1023E000FFF77CFF1E226368A44E93431A00062366
:1023F000134363600121300007F087FA300001F0D9
:10240000D1FE300001F09EFC01210F2008F048FAB7
:1024100002210A2008F044FA02210D2008F040FAB7
:102420000221052008F03CFA02210B2008F038FABE
:10243000934BFF33DB7F5BB20393013300D115E194
:10244000039B102B00D111E103228E490B2007F0D2
:1024500089FE8D4B8D495A880A405A805A78D20994
:10246000FCD18B4A5A805E78F609FCD101273B00EB
:102470000398884A8340516913200B435361C0235A
:1024800062689B0013436360022108F009FA02218D
:10249000072008F005FA02210C2008F001FA0221B9
:1024A000062008F0FDF90C2008F018F93100092089
:1024B00008F0F6F90821112008F066FA3900112019
:1024C00008F0EEF93900112008F01AFA724803F00A
:1024D0007FFB0221080008F057FA0321080008F0EA
:1024E00053FA0321042008F04FFA0821262008F0AF
:1024F0004BFA3A006949280002F070FF8C20C000B6
:1025000009F0F6F88C2204003100D2000AF041F9FB
:10251000634A644BE6711C60A318A652180025603C
:10252000039303F0D7FE3900200003F03BFF5C4F1C
:1025300000280ED02100039803F059FE00280ED089
:102540007023E25D1A420AD0574B039A06001A60C4
:1025500005E03100200003F025FF0028EAD1534CAC
:1025600004352800267202F089FF514E514B20603D
:1025700000213000504A0093504B04F05FFB504B59
:10258000300000214F4A00934F4B04F06DFB3000A8
:1025900000214E4A04F071FB280002F07AFF070088
:1025A000280002F070FF0200802300257A433000EB
:1025B0009B000021520A04F04AFB30000122002156
:1025C00004F04CFB300004F05DFB05210022404884
:1025D00002F0AEF93F4B404A1D70404B24201A6078
:1025E00009F086F80223FF338380FF3B83603C4B76
:1025F0003C4A0360030005731033C2CAC2C342CA17
:1026000042C3394E394B29001860300002F0C8F837
:102610002900300001F0F0FF2900300001F0D8FF60
:102620002900300001F0C2FF0122E6231100300032
:1026300002F030F8300002F03FF8E060FFF7E2FD12
:102640002B4B2C4D1880280004F0B8F9FA204000DC
:1026500007F0F2FE280004F0B5F9237A002B05D12B
:102660008321FA220F20490008F0E2FC05B0F0BDFA
:1026700010030020B4030020004000416802002045
:1026800050FE00004D210000000C0040FFBFFFFF86
:102690000543000000180040C40200209CF1000027
:1026A0003C040000B003002020060020B8030020F6
:1026B000480300206EF1000065F1000056F10000B3
:1026C000B9210000FD20000025210000712100003B
:1026D000CD0300200C020020409C000030030020AD
:1026E0003CF5000088F10000AC030020100200203F
:1026F0000400002044060020802330B5244C5B02F7
:1027000063610021012385B02161019307330A0031
:1027100000932000383307F042F81E4B1A681E4B16
:102720001B689A422ED91D4B6421187809F094F841
:102730001B4BC9B21B4A009120001B6812681A4942
:1027400008F0A8F98221194B00221B8849008B420E
:1027500009D80132F02B06D80132DC2B03D8013224
:10276000D22B00D80132022301250393002320003D
:1027700000920F4930220295019301F06EFC28006F
:1027800005B030BD20000B4908F084F9DAE7C046F7
:10279000680200203003002014020020C002002044
:1027A000340300203803002072F1000004000020F0
:1027B000FC01002081F10000F7B58E4F380002F0D7
:1027C00057F8FFF751FD8C4B1B7818438A4B187054
:1027D00007F0ECFD894B1860874B1A78002A03D06C
:1027E000874B8849C3180B608749884C0B68884D14
:1027F000C31A23602C88A3427AD308601000854B4B
:1028000085491B7898430860180084491340904319
:10281000834A0860136007F0C9FD824C019020686C
:1028200003689B689847060007F0C0FD019B7E4A3D
:10283000C01A1368834200D2030020681360B042BC
:102840001AD0002802D003685B6898470023774AB3
:1028500026601360744A1360B3680D2B00D1BBE08F
:1028600000D9AEE0022B00D1B1E0042B00D1B1E0E1
:10287000FFF7C8FC6E4B188007F098FD2368060030
:102880005B79002B16D06B4D0021280001F02FFC46
:1028900080231B0320682B61674B29006B61036851
:1028A000DB689847FFF728FF0122644B1A7000226B
:1028B00023685A71624B1B78002B00D18EE05F4B6E
:1028C0001A78002A0DD000221A7007F06FFD574ABF
:1028D000861B1368B34200D233005648136001F0E0
:1028E00031FA454B1A784B4B1A700023424A137049
:1028F000444B424A1B6812689A4261D3FFF782FC3C
:102900004B4B4F4E18803378002BFCD0380001F031
:10291000C1FF0A21380002F04FF8002205213800DB
:1029200002F006F80022474B1A701A78464B002A2C
:1029300002D11A6801321A601A686D2A0FD9002173
:102940003C4C1960200001F0D2FB200001F0FAF9A4
:102950003378002BFCD00122324B1B685A71314C6A
:10296000206803689B68984705002068A84205D046
:10297000002802D003685B6898472560012322681D
:1029800053713378002B18D02A4D0021280001F014
:10299000AEFB80231B0320682B61274B29006B6152
:1029A0000368DB689847FFF7A7FE0023226828002A
:1029B0005371224A137001F0C5F93378002BFCD013
:1029C000F7BD3F2B00D053E7FA239B0000E0212303
:1029D0002B804DE74223FBE7C823F9E7114B1B6827
:1029E0005B79002B00D17CE7184A13780133137010
:1029F00077E7C046CD0300202C03002014020020FE
:102A000060EA0000300300203C030020280300207F
:102A10000600002040030020A4030020A80300209B
:102A2000C8030020100200203803002034030020D7
:102A300004000020680200200100010018020020AC
:102A4000080000200C02002044030020C0020020E7
:102A5000C37882781B02134342781B020078134329
:102A60001B02184370470B0A017043700B0C090ED0
:102A70008370C17070478218017001309042FBD1A1
:102A8000704730B500230500013AEC5CC85C201AA1
:102A90009A4202D001330028F7D030BD4269023992
:102AA000023A030000208A4203D958894143986AB8
:102AB000081870470268002A09D0130019780133FA
:102AC00020290BD93A29F9D1911C8B4202D001203F
:102AD000404204E01278302AF9D1036000207047A8
:102AE000002310B5CC5CC45401339A42FAD110BD16
:102AF00070B5060004003036012331004078E26AE8
:102B000002F016FB051E11D1E26A236AA169E0708A
:102B1000D31A8B4208D2A378022B05D152186078C1
:102B20003100013B02F004FB280070BD0125FBE7EA
:102B300070B50400E36A0D0000208B4215D0E378E5
:102B400083420DD1210001232A006078303102F048
:102B5000DFFA002802D0012501206D42E56204E081
:102B60002000FFF7C5FF0028ECD070BD002370B532
:102B7000C370013BC3620400FFF7DAFF051E24D1D6
:102B8000154BE25C154B1202E35C1343144A1BB273
:102B900093421CD1230030331B78EB2B03D0183326
:102BA000DBB2012B15D8200003220E496630FFF757
:102BB00068FF002807D0200005220B498230FFF76C
:102BC00060FF002805D1280070BD0425FBE7032520
:102BD000F9E70225F7E7C0462F0200002E020000A9
:102BE00055AAFFFF10F2000014F200000023F0B518
:102BF0000B608DB00E000192FFF75CFF0B24051EE9
:102C000019DBAC4B8200D7580134002F13D037604A
:102C10000126019C3B78B443002B0FD0787802F05A
:102C200073FA30420AD1002C05D0042304001C4062
:102C3000184200D00A2420000DB0F0BD0023E8B2F5
:102C40003B70787002F062FAC30700D529E1002CCE
:102C500001D04307EED400213800FFF787FF022898
:102C600028D13C0008AD2E00934BF334FB18FF3401
:102C7000019300202378834202D0201DFFF7E8FE55
:102C8000019B103401C5A342F3D100240325A30006
:102C9000F35828000193002B05D019003800FFF7E6
:102CA00065FF01280FD90134042CF0D10124042838
:102CB00007D1C0E701240428BDD000230193A0421E
:102CC00001D90D24B7E73B003C331A78013B1B7850
:102CD0001202134380221BB292009342F1D13B00B7
:102CE0003A0047331B78463210781B02184300D154
:102CF000C0E00290029BBB613B0040331C78631E26
:102D0000BC70012BDDD83B003D331E78B3B27B8114
:102D1000002BD6D0731E1E42D3D13B0042331A780B
:102D2000013B1B78120213431AB2079203933B81B3
:102D30001B07C6D13B0044331D78013B18782D0298
:102D4000284303D138005030FFF782FE3B003A00A1
:102D50003F331B783E3212781B021A430592B0D0E3
:102D6000029B63430693039B1B099B18069A9B18BF
:102D700004939842A5D3C51A3100280008F0E6FC58
:102D80000400B5429DD34D4B98429AD84C4B984283
:102D900000D888E00325019A019B9446FB61049AC0
:102DA000059B0234634462447C613B62BA62032D3A
:102DB00065D13B005B331A78013B1B781202134349
:102DC000079A1A4313B2002B00D07AE738005C3020
:102DD000FFF73EFEA40078623A4BE418029B640AB7
:102DE0009C4200D96DE701235B423B61FB6081336C
:102DF0003B71032D35D13B0061331A78013B1B78C1
:102E000012021343012B2CD1019938000131FFF735
:102E10008FFE002825D12C4B3871FA5C2B4B120207
:102E2000FB5C13432A4A1BB293421AD1380030305C
:102E3000FFF70EFE274B984213D185239B00F8180D
:102E4000FFF706FE244B98420BD186239B00F8180F
:102E5000FFF7FEFD87239B003861F818FFF7F8FDA8
:102E6000F8601E4A002413883D7001339BB2138022
:102E7000FB80E0E638005430FFF7EAFD39E7039ABB
:102E8000002A00D11DE7069A9B187B62022D01D112
:102E90006400A1E70320012360431C40400804199B
:102EA0009AE70324C7E60E4D8542AD416D420135D8
:102EB00071E7C0469C03002032020000F5FFFF0FBF
:102EC000F5FF0000FF0100002F0200002E020000AD
:102ED00055AAFFFF5252614172724161A003002066
:102EE000F50F0000F0B507000D001400022685B0B4
:102EF000012948D943698B4245D903780093B342ED
:102F00004BD0032B5CD0012B3DD14B085B180193B8
:102F1000590A036AC918FFF70BFE061E33D13B009E
:102F200030330293019B029A01330393019B009972
:102F3000DB05DB0DD318009A2A400192E2B20D4264
:102F400008D00F21FF201A7800010A40210101401A
:102F50000A43D2B21A700123FB70039B3800590A4E
:102F60003B6AC918FFF7E4FD061E0CD1039BD80588
:102F7000029BC00D1818019B002B07D02409E4B256
:102F800004700123FB70300005B0F0BD0F22037800
:102F9000240A934314401C43F2E7036A090AC91840
:102FA000FFF7C6FD061EEED1FF213B006D00490074
:102FB00030330D405D192C70A4B2240A6C70E0E728
:102FC000036AC909C918FFF7B3FD061EDBD1FE214C
:102FD0003B004900AD0030330D405D192800FFF77C
:102FE00037FD2401010F2409090728002143FFF7B9
:102FF0003AFDC6E7F7B5012604000D00B14214D929
:103000004369994211D20378022B2ED0032B3ED074
:10301000B3420AD14F08036A7F18790AC918FFF72B
:1030200087FD002803D0012676423000FEBD7B1CC0
:10303000FF05590A0193FF0D236AE7193037200075
:10304000C9183F78FFF774FD0028ECD1019BD80523
:10305000C00D24183034207800020743354201D0D7
:103060003E09E2E73F053E0DDFE7036A090AC9189A
:10307000FFF75EFD0028D6D1FF216D0049003034F6
:103080000D4064196678207836020643CDE7036A5E
:10309000C909C918FFF74CFD0028C4D12000FE243F
:1030A000AD006400303025404019FFF7D1FC060127
:1030B0003609BAE7F7B50F1E0568019007D1EE682B
:1030C000002E02D06B69B34210D801260EE0280012
:1030D000FFF790FF0400012802D801242000FEBD64
:1030E000431C57D06B693E008342F7D82B69002BF5
:1030F00001D10024F2E7BE4216D16B69741CA342D1
:1031000000D80224019B21001868FFF773FF0128F3
:10311000E3D0431C3ED000281CD0EB68012B03D920
:103120006A69934200D21E0034006B690134A342E5
:1031300002D8012EDDD90224019B21001868FFF777
:1031400059FF002808D00128C7D0431C22D0B44220
:10315000EBD1CEE7002CE7D001222100280052421B
:10316000FFF7C0FE002813D1002F0AD16A692B692E
:10317000023AEC60934210D901232A7913432B7150
:10318000ACE7220039002800FFF7ACFE0028EDD0A4
:103190000128A2D101246442A0E7013B2B61EBE7A7
:1031A000002370B585680400066803619D4215D14F
:1031B0003378022B02D9736A002B0ED13389002B8E
:1031C00001D1022070BD736AA361A3696561002B00
:1031D000F7D030360020E661F4E71D007389002B3C
:1031E0000CD129002068FFF705FF0500431C0BD018
:1031F0000128E6D973699842F3D3E2E72900300049
:10320000FFF74CFCA061E0E70120DBE770B5C37875
:103210000400002B47D12378032B3BD12679012EC4
:1032200038D1250080223035002128009200FFF798
:1032300022FC55221E4B4121E2541E4B9218E254AF
:103240002200DE3BFF3B31322B70137023006122E2
:10325000323385201A705970722380002354164827
:103260002354164BE154164BE2540133E018216904
:10327000FFF7F9FB87239B00E018E168FFF7F3FBFA
:10328000E36929005A1C60783300E26201F050FFC4
:103290000023237100226078110001F059FF431EC2
:1032A0009841C0B203E0FFF723FC0028B3D070BD03
:1032B0002E0200002F02000015020000160200007E
:1032C00017020000F8B5C37804000D00002B17D1D9
:1032D000290020002700FFF7E1FB80223037E06261
:1032E0000600002138009200FFF7C5FB0025638926
:1032F0009D420CD363895B1B581E8341DBB204E003
:10330000FFF7F6FB01230028E2D01800F8BD0123E7
:1033100039006078721901F00BFF0028EAD10135FD
:10332000E5E78023F7B507690400203706680191B7
:103330009B039F4201D300238361A3690420002BD8
:1033400010D0FA05D10D0091002A3BD161690133FB
:10335000A361002907D132897B09934232D300232C
:103360000420A361FEBD73897A0A013B1A4229D168
:103370003000FFF73FFE0500012801D80220F1E7E9
:10338000431C01D10120EDE77369834214D8019BEE
:10339000002BE4D020006169FFF78CFE05000720B8
:1033A000002DDFD0012DE9D06B1CEBD029003000BF
:1033B000FFF788FF0028E5D1290030006561FFF79D
:1033C0006DFBA061009B3036F61800202761E66196
:1033D000C8E7F7B5040005683F26042020270191BF
:1033E000A169002902D1002819D020E02800FFF7A8
:1033F0009FFB00281BD1E3691A78002A1AD0DB7AD8
:103400003340A371E52A0CD02E2A0AD00F2B08D006
:10341000BB43083B5A425341019A934201D10020D9
:10342000FEBD00212000FFF77CFF0028D8D000233C
:10343000A361F5E70420FAE770B504000568FFF71B
:10344000AFFE002810D12800A169FFF771FB00280A
:103450000AD1E3691B78E52B09D0002B07D00121A5
:103460002000FFF75EFFECE7042800D1033070BDB9
:103470001FB5019003A8140000910391FFF71AFBF8
:10348000002817DB0C4A80008358002B01D0002154
:103490001970019B002B01D0002119701350002CD2
:1034A00005D00022684601A9FFF7A0FB0400200018
:1034B00004B010BD0B24FAE79C03002030B595B092
:1034C0000190022202A901A8FFF790FB041E42D13D
:1034D000250020210B2203A8FFF7CDFA3849019BD4
:1034E0001A781F2A23D86B461B7BE52B32D0002D80
:1034F00006D06A460C216B1E5218D25C202A3CD0A2
:10350000029B09A8099300230B93FFF749FE041EB1
:1035100021D1012109A8FFF75CFF002838D11098BC
:10352000002D2CD00B2203A9FFF7DAFA29E05A1C50
:1035300001921A781000613893B2192803D8203B01
:103540009BB2204A0BE07F2B02D98A18803A13786D
:10355000002BF6D10624200015B030BD01321078C2
:10356000002802D08342F9D1F4E70B2DF2D06A464D
:103570000C20121853550135B1E71D00B7E7E523BC
:10358000037001230298C370FFF740FE0400E2E7D6
:103590000428FBD1002DDED009A8FFF74DFF041E43
:1035A000D9D1010020221098FFF765FA109B03A9DA
:1035B00000930823009AD37210980B22B4E7C046F8
:1035C0004EF20000CEF20000F0B58FB00B900BA8C9
:1035D0001C000F001500FFF76DFA03000B20002BF5
:1035E0002BDBA64A99008A58002A01D000211170CD
:1035F000DBB21800049301F089FD03000320DA0711
:103600001BD407305B0718D4032104980CAA01F0DF
:103610009FFD002807D180210C9B09025A1E8A4277
:1036200001D21A4201D001230C93002D0AD0944BF1
:10363000944AEB18934202D913200FB0F0BD6B1ED1
:103640001D42F9D11120002CF7D08023149A9B0041
:103650009A42F2D3012104980DAA01F079FD0300EA
:103660000120002BE9D10822390011400791039372
:10367000174201D13F3303930D9E039B9E4201D21B
:103680000E20DAE7039BF61A0D967F2EF8D98123D8
:103690005B029D42D0D202233A001A406D0A0A9280
:1036A0001F4227D005333B40022B00D100E2FB072D
:1036B00000D4FDE12F1E08D10127734B310B1A886E
:1036C000002A02D002338A421BD93900300008F0A8
:1036D0003DF86E4A0300904215D9022302304000A3
:1036E00001936B4BC018430A0293202309931F3B9D
:1036F000069304E2FB07DDD49EE76D00DEE101974F
:10370000E6E17F00DBE70320584301304008012356
:103710000330E5E7029B9B1802930AE2019B022B10
:1037200016D15C4B089A9A4208D9002D00D0BBE113
:103730007F00402F00D91CE23D00BBE7534B089AA5
:103740009A420BD8002D9BD17D00802DB2D997E7EE
:103750004E4B089A9A4293D801230193802200216C
:1037600020009200FFF787F94B490B222000FFF75A
:10377000B7F902232373069B0022A3736B461B8BAE
:10378000E2721B0AE37301232374019B6773033BFB
:10379000591E8B415B00A37480230D9962745B02F8
:1037A00099424BD2E17489B2090A2175F8230025A8
:1037B00020006375B93B2376C033A3760399657601
:1037C000E5761C30FFF74FF9019B032B3BD123001B
:1037D0002122200043339A702D32DA7002991D7035
:1037E0005D702430FFF73FF92300022220002C33C4
:1037F0001A70013A1A7105329A717A321A7527498C
:10380000573A9A755D709D70DD705D71DD71163A85
:103810004730FFF765F9FF2355225B00E2541C4E49
:10382000553BFF3BA3552100039A0498A93B01F0A7
:103830007FFC0696051E35D00120FEE620002030D4
:10384000FFF711F9B2E7230021220833DD77203397
:103850005A702D329A701D70029B2000A3756B4622
:103860001B8932321B0AE375631DDA77573AE31D71
:10387000DA770B49163A2B30CBE7C0469C03002081
:1038800000FEFFFF00FEFF00E0F20000F50F000069
:10389000FF010000F5FF00001AF2000026F2000010
:1038A0003AF20000019B032B47D1039B21009A1D94
:1038B0000498012301F03CFC8022290020009200A2
:1038C000FFF7D9F85223F22041227221237063704E
:1038D00040000F33A370E2702154E620FF302154E2
:1038E0007531FF3162542000E8220899FF32E93037
:1038F000A3540139FF30FFF7B6F8F62302225B002C
:10390000E254EE23FF33E5540133E554F023FF3353
:10391000E55453320F33E254069B5532E254039B75
:103920002100DA1D0498012301F002FC039B210011
:103930005A1C0498012301F0FBFB149B00215D0A33
:1039400020006A02FFF797F8019B032B59D1F5334A
:10395000237007336370A370E37023716371A371E5
:10396000E37123726372A372F03BE372029EAE4274
:1039700000D92E0021003300059A049801F0D8FBED
:10398000011E00D058E7802220009200FFF773F854
:10399000059B9B190593029B9B1B0293E6D1019B00
:1039A000032B00D0099F3E00AF4200D92E00330008
:1039B0002100059A049801F0BBFB002800D03BE7EA
:1039C000059BBF1B9B190593002FECD1019B0C2578
:1039D000032B0AD080230D9A5B02063D9A4204D243
:1039E000019B023D022B00D0033D079B002B15D00D
:1039F00000220498110001F0ABFB431E9841C0B2B5
:103A00001BE6019B2000591E4B425941802349422D
:103A10005B0419400839FFF726F8A7E78022200049
:103A200007999200FFF727F8FF2355225B00E25425
:103A3000069A553BFF3BA354079A1533FF33E254D4
:103A4000C0230126FF33E6549B19E654C223FF33FB
:103A5000E2549B190D9AE554039B4A49981807F0C4
:103A600075FEC423FE22FF33E254853B8208FF3BF0
:103A70001343E2225200A354C623FF33E054200034
:103A8000C7300399FF30FEF7EEFF2000CB300D99D1
:103A9000FF30FEF7E8FF33002100079A049801F099
:103AA00047FB0028A4D0C7E60A9B002B00D1E7E51E
:103AB0000195002D0CD10125334B720C1F88002F6E
:103AC00000D11CE60233974200D816E6002301938A
:103AD0002900300007F03AFE2C4A83009B185B0A4D
:103AE00002932B4BC0182B4B984200D9C8E50023FA
:103AF0000993203306931D3B2F00019D0193039AE8
:103B0000069B94466344029A0593099B9918059B6A
:103B10000C9AC918531E5B1852421A40019B521A44
:103B2000032B00D0F6E5069B9B180693059B9B187C
:103B30000593039A3B019B1A5B189E4200D29FE5B6
:103B4000099B3900F01A069BC01A029BC01A07F0A5
:103B5000FDFD019B0890032B00D0DFE50E4B984242
:103B600000D9FBE5002D00D08AE57D08012F9FD804
:103B700086E50A9B002B9ED13D00802F00D8A4E54E
:103B80007EE5C046C13E0000EEF2000007020000E4
:103B90000A00FFFFFFFFFE0FF5FF000010B502480F
:103BA00000F0F2FC10BDC046AC03002000207047BE
:103BB0007047000010B50021082006F0A1FE034860
:103BC00001F090FE0122024B1A7010BDD4030020B8
:103BD0000800002010B504682469A04710BD00004B
:103BE000F0B5040085B015000AAA03910021525EC9
:103BF00019B205F09BFE1A4B002608332360230000
:103C0000200038336662A662E662266366633C3053
:103C10001D7002F059F8072120000822A35E5030E1
:103C20001033DA170A40D218D21002700A20225E2E
:103C300038205A43D3170B409B18DB10636507F0FD
:103C400057FD039B0B9A0193022369B20093330043
:103C5000070006F095F82000676305B0F0BDC04688
:103C60000CF3000070B5002927DB0C25445F8C4263
:103C700023DD002A21DB0E25445F94421DDD857E75
:103C80000826845F022D19D0032D20D0012D23D1C9
:103C9000A21A073212B20725103461438918CC17D3
:103CA0002C406118446AC91060182A40615C002BDE
:103CB00017D00E4B9B5C1940017070BDD2438DB282
:103CC0004189891822000F3209B2521BE2E7458967
:103CD0000735691A09B2DEE708310D0011002AB272
:103CE000D9E7034B9B5C1943E6E7C046FCF20000B2
:103CF00004F30000F7B51F00040049000BB25200A6
:103D00008DB2009316B293B201352DB232000099F4
:103D100001933B00FFF7A6FF3B0029003200200083
:103D2000FFF7A0FF019B20005E1C36B23B00320073
:103D30000099FFF797FF3B00320029002000FFF7B2
:103D400091FFF7BD154B10B51A780400D0B2002AC8
:103D500023D00022606B1A7006F06FF8230038330E
:103D60000121187806F0CCFDA36A581E0822A35E34
:103D70000A21625E072110335343DA170A40D21832
:103D8000636AD210591E023208F0E7FC20003C3072
:103D900002F0CCF843425841C0B210BD08000020E8
:103DA000F0B5002507002C002E008BB0019210AA60
:103DB00012780991029211AA1278039212AA12782B
:103DC000049213AA12780592019A5A430692069B0E
:103DD0009E4239D20999AB005B58E200D340DBB276
:103DE000DA0907927F2213409B190893089B9E4291
:103DF00022D03000019907F02FFD079BC9B2C2B253
:103E0000012B0ED1059B022B09D0039BD218029BDC
:103E1000D2B2C918059BC9B23800FFF7DBFE0136E4
:103E2000E4E7049B022BFAD0039BD218029BD2B288
:103E3000C918C9B2049BEFE70134E4B2032CC6D918
:103E400001350024EDB2C2E70BB0F0BDF0B500259E
:103E500007002C002E008BB0039210AA1278099153
:103E6000019211AA1278029212AA1278049213AA4D
:103E70001278059214AA12780692039A5A4307926E
:103E8000079B9E424AD20999AB005B58E200D3409F
:103E9000DBB29A0900923F2213409B190893089BBA
:103EA0009E4233D03000039907F0D6FC009BC9B284
:103EB000C2B2012B0ED1059B022B09D0029BD21856
:103EC000019BD2B2C918059BC9B23800FFF782FE28
:103ED0000136E4E7009B022B0AD1069B022BF7D0A8
:103EE000029BD218019BD2B2C918C9B2069BECE75B
:103EF000009B002BECD1049B022BE9D0029BD21833
:103F0000019BD2B2C918C9B2049BDEE70134E4B206
:103F1000032CB5D901350024EDB2B1E70BB0F0BDEB
:103F2000F0B500252F008BB0099210AA12780290EC
:103F3000039211AA147812AA12781B19049213AAD8
:103F40001278DBB20891059206930195069B9C427C
:103F50002DD0039A099B16009B18DBB20793079B91
:103F6000B34221D0002F11D0019B013F5B08019388
:103F7000FFB20122019B134210D0059B022B0DD0F2
:103F8000220031000298FFF725FE0AE0089AAB00F4
:103F90009B5801351F270193EDB2EAE7049B022BE2
:103FA000EED10136F6B2DAE70134E4B2CEE70BB077
:103FB000F0BDF0B5002607008BB0099210AA127868
:103FC0000891029211AA147812AA12781B1903926E
:103FD00013AA1278DBB2049214AA127806930592FF
:103FE00001960096069B9C4235D0029A099B1500CB
:103FF0009B18DBB20793079BAB4229D0019B002B98
:1040000016D0009B9B080093019B013BDBB203226F
:104010000193009B1340012B12D1049B022B04D06F
:10402000220029003800FFF7D5FD0135EDB2E2E7A7
:10403000089AB3009B5801360093F6B20F23E6E7C7
:10404000022B01D1059BE9E7002BEED1039BE5E7AD
:104050000134E4B2C6E70BB0F0BDF0B589B014008E
:104060000FAA177810AA12780E68944611AA12782F
:104070001D0007920EAB1B783289934218DA4A680A
:104080005B009B5A89689B00C918B38832780693F5
:10409000B378F688002E15D0069E002E0AD0079E13
:1040A000029704966646019503960094FFF7CEFEAC
:1040B00009B0F0BD66460297039601950094FFF79C
:1040C0006FFEF5E7069E002E09D0079E0297049624
:1040D0006646019503960094FFF76BFFE8E7664696
:1040E0000297039601950094FFF71AFFE0E7F8B5F1
:1040F0004C424C41050000266442E4B26B6DB34271
:104100000CD92F0050376B6A3A78701C18182100B0
:10411000023A08F03EFB3B78F618EFE7F8BD10B521
:10412000C9B2FFF7E4FF10BD0300F7B539334A1EEB
:104130000E00197801230B4313700823C15E0A2275
:10414000835E07220024050010315943CB1713402A
:104150005B18DB10F3185C7001926B6DA3421FD9E2
:104160002F00631C009350373A78FF21023AF01871
:1041700008F00FFB0822AB5E019A1033D9171140EB
:10418000C9180098C91007F0E1FA013030553A78A3
:1041900033199B180022013B1A703B78E418DCE7C6
:1041A000F7BD000003000022F0B53A331A70040096
:1041B00087B0406B05F007FE061E00D199E0230092
:1041C000022239331A700A22A55E0822A35E072252
:1041D00010336B43DD171540ED18ED100235280044
:1041E00008F09CFAE0620700280008F097FA2063C4
:1041F000002F00D17DE0002800D17AE02500791C55
:104200000130E16220632000FFF78EFF2000216B68
:10421000FFF78AFFE36A3C356362236B0A212800BB
:10422000A36201F0CFFE2800022101F0EFFE28007A
:1042300001F0A0FD00285CD107210823E25E0A27D7
:10424000E35F10325A43D3170B40A16A01249B1835
:10425000DB100233284A0139049003900290019444
:104260000090280001F0F8FE22002800234901F008
:10427000A5FE234C234BA360234B63606378DB09CB
:10428000FCD10421012006F07FFB204B6380637882
:10429000DB09FCD102211E4B1A688A431A609A6816
:1042A0009207FCD48022196812010A431A60022284
:1042B00019680A431A609A689207FCD4D96B154AA8
:1042C0000A43DA639A685206FCD440221A649A6858
:1042D0001206FCD420225A649A68D205FCD4022229
:1042E00019680A431A609A689207FCD4300007B034
:1042F000F0BD0026FAE7C04628180042B53B000092
:10430000000C004004070000040331001A440000C0
:104310000024004206000F0010B5024800F034F9F6
:1043200010BDC046CC0300200020704701614261EF
:10433000704710B504000121007B06F0B1FA01219D
:10434000207B06F0DDFA10BD10B50400806801F096
:10435000A4FA0021207B06F0A3FA10BD084B37B564
:1043600004008068994200D9190000256B469D80A1
:10437000019A01F09BFA2900207B06F0C1FA37BDB3
:1043800000366E0110B504000121007B06F0B8FA7A
:10439000A06801F0A7FA10BD70B504000D00016916
:1043A000FFF7DCFF2900A06801F0B0FA2000FFF75A
:1043B000E9FF012070BDF8B506000F004169140047
:1043C0001D00FFF7CBFF3900B06801F09FFA6519B7
:1043D000AC4206D0FF21B06801F098FA2070013499
:1043E000F6E73000FFF7CEFF0120F8BDF8B5060074
:1043F0000F00016914001D00FFF7B0FF3900B0681D
:1044000001F084FA6519AC4205D02178B06801F05A
:104410007DFA0134F7E73000FFF7B4FF0120F8BD63
:10442000054B08330360054B01738380044B8260A6
:10443000436103617047C04664F30000030300005A
:1044400000093D000379032B04D0042B05D1130E82
:104450000B700131130C0B700131130A0B704A7091
:10446000704773B50E00016904001500FFF776FF71
:104470006B4604220021581C08F08BF96B462A0079
:10448000591C20001E70FFF7DDFF22796946A068E5
:10449000013201F040FA2000FFF774FF012076BDE1
:1044A000F0B50E0087B04169040015000393FFF7D3
:1044B00055FF092302A81B1805220021180008F047
:1044C00068F9637904AF3B70092302A95B181900EE
:1044D00032002000FFF7B6FF627901260B3A534203
:1044E0005A412179A06801315218D2B2390001F045
:1044F00012FA2A000021039BA068009601F01AFA24
:104500002000FFF73FFF300007B0F0BDF0B50D0011
:1045100087B00169040002920393FFF71FFF022393
:10452000092100262A000125049302ABC9182000A6
:1045300004AF3E71FFF786FF22793900A06801328F
:1045400001F0E9F93200039B0299A068009501F09F
:10455000F1F92000FFF716FF280007B0F0BD0000BA
:104560000022014B1A707047CD030020002805D0AF
:10457000034B044A5A809A7AD209FCD17047C0464C
:10458000001400400080FFFF00230370704700000C
:10459000044B10B51B68002B00D098470122024B3A
:1045A0001A7210BDD00300200014004003780A00E6
:1045B000002B09D03F20054B02401969814311436C
:1045C00019619A7AD209FCD17047C04600140040A4
:1045D0000378002B0BD03F20054B01401A6905489A
:1045E00089010240114319619A7AD209FCD17047BE
:1045F000001400403FF0FFFF0378002B0BD01F207A
:10460000054B01401A69054809030240114319612D
:104610009A7AD209FCD1704700140040FF0FFEFFC8
:104620000378002B0BD01F20054B01401A69054869
:1046300049040240114319619A7AD209FCD17047AA
:1046400000140040FFFFC1FF0378002B0BD00F20A8
:10465000054B01401A69054889050240114319615B
:104660009A7AD209FCD1704700140040FFFF3FFC4A
:1046700003780A00002B09D0054B920619698901BD
:104680008909114319619A7AD209FCD17047C04651
:104690000014004070B51D00037804001600002BC4
:1046A00009D0FFF7BDFF31002000FFF7CDFF290043
:1046B0002000FFF7DDFF70BD00B500788BB0FFF77D
:1046C00055FF01220F4B52421B69099200220892AA
:1046D00007929A0E643206929A01120F013A0592DD
:1046E0009A02D20E0492DA03D20E03921A059B06A6
:1046F000920E9B0E01A80292019308F019F90BB0DB
:1047000000BDC04600140040094B0A4A9A605A781E
:1047100052B2002AFBDB084A5A605A7852B2002A89
:10472000FBDB064A5A805A78D209FCD17047C04652
:10473000000C0040020400000205110004420000C9
:104740000221044B1A888A431A809A7AD209FCD132
:104750007047C046001400400222044B19880A43E7
:104760001A809A7AD209FCD17047C04600140040E2
:104770000122044B19880A431A809A7AD209FCD183
:104780007047C046001400400121044B1A888A4338
:104790001A809A7AD209FCD17047C04600140040B2
:1047A0002023F7B500272A4A0E00916905000B4324
:1047B0009361284B284A294C9A82BE420BD1284B40
:1047C00037001A7870231A4205D023881B0702D5B8
:1047D0000127236901932800FFF796FF2800FFF7C0
:1047E000AFFF2800FFF7C4FF63881E4A13406380B1
:1047F0001D4B2380A37ADB09FCD1C0211B4A08335F
:104800001360890053581B021B0A53500123E2799D
:1048100013430722E371237F93432377A37ADB09B2
:10482000FCD12800FFF798FF2800FFF7ADFF002E0E
:104830000BD1002F09D0019B002B06D02361A37A56
:10484000DB09FCD101332B70F7BD8423DB03F5E7D3
:104850000004004000080040CE06000000140040A4
:1048600038040040FFBFFFFF080A000000E100E03D
:10487000034BDB79DB0902D1A522024B1A6070479A
:104880000010004008100040014B1878C0B270477B
:10489000380400400221044B1A788A431A70DA79EE
:1048A000D209FCD17047C046001000400221064BDF
:1048B0001A788A431A70DA79D209FCD199790132CF
:1048C0000A439A717047C04600100040114B124ACB
:1048D00030B59A60114A5A605A78D209FCD1104A10
:1048E0005A805A78D209FCD10E4904320E4BCA675D
:1048F000BFF34F8FBFF36F8FC021C02449005A50C0
:10490000A4001959094D294019511A600123037057
:1049100030BDC046000C0040030700000303310017
:104920000343000004E100E000E100E0FFFF00FFBE
:10493000F8B5037805000F001600002B01D1FFF732
:10494000C5FF00231B4C2370E379DB09FCD10F204A
:1049500001330740002E1ED061790B4363710B2396
:10496000617881430B4363706378390118400423F5
:1049700001436170227813432370E379DB09FCD192
:104980002800FFF775FF0223227813432370E37991
:10499000DB09FCD1F8BD042221790B432371617836
:1049A000814339436170237893432370E379DB09B2
:1049B000FCD1E5E70010004010B50122FFF7B8FF79
:1049C000C023074A9B0051680B4353600423054AE8
:1049D00011690B431361BFF34F8F30BF10BDC04649
:1049E0000040004100ED00E070477047704770479D
:1049F000704770472F4B10B51A68930608D50C23E3
:104A0000C356042B04DC013303730123437110BD2F
:104A1000D30605D50C23C356002B01DD013BF3E77C
:104A20001307F4D50C23C356042BF0D8180006F056
:104A30006FFE030F1E2B36000C2006F059FE81235B
:104A40005B0083801C4B083303600D238360DEE72B
:104A5000102006F04DFE0423FF338380023BFF3B12
:104A60008360164B083303600023C360CFE70C203C
:104A700006F03EFE82235B008380033BFF3B8360A6
:104A80000F4B08330360C2E70C2006F031FE83238E
:104A90005B008380053BFF3B83600A4BF1E70C2002
:104AA00006F026FE0623FF338380043BFF3B836032
:104AB000054BE6E7A8030020D4F400001CF5000035
:104AC000ECF4000004F500004CF5000070B50C009B
:104AD0000F4E0500336820001A0D0E4905F0DAFF6D
:104AE000337A0D4A002B00D10C4A20000C4905F006
:104AF000D1FFEA6820000B4905F0CCFF20000A49ED
:104B000005F0C8FF2000094905F0C4FF70BDC0468C
:104B1000B803002098F3000010F2000094F30000A6
:104B2000A4F30000ACF30000B5F30000BEF30000F6
:104B300070B50C000D4B20000D491D6805F0AAFF53
:104B4000072220002A400B4905F0A4FF6A04D20F77
:104B50002000094905F09EFF2000084905F09AFF52
:104B60002000074905F096FF70BDC0460040800058
:104B7000C9F30000D2F30000DCF30000B5F300003D
:104B8000E7F30000802330B50D0001241B030B6107
:104B9000304B87B028004B612F4905F07BFF2F4B2E
:104BA0001968C808204005908808204004904808EB
:104BB00020400390080020400290CB090A09880990
:104BC00049092040214023402240019000912800C3
:104BD000234905F05FFF234B1968C8082040059062
:104BE0008808204004904808204003900800204096
:104BF0000290CB090A098809490920402140234035
:104C00002240019000912800174905F043FF174BFF
:104C10001868C1082140059181082140049141088C
:104C200021400391010021400291C3090209810939
:104C300040092340224021400440019128000C49B2
:104C4000009405F027FF28000A4905F023FF07B06C
:104C500030BDC04601000100F5F30000A4030020B0
:104C600001F40000C803002015F40000A803002090
:104C700029F400003DF4000010B5040006F03CFDEE
:104C8000200010BD10B5040006F036FD200010BD58
:104C900010B5040006F030FD200010BD10B5040072
:104CA00006F02AFD200010BD10B5040006F024FD1A
:104CB000200010BD10B5040006F01EFD200010BD40
:104CC000F8B5437906000D00002B19D0802300248D
:104CD0001B03447180270B612800012105F02CF88B
:104CE0007F020C23F356A3420BD16F613300A20065
:104CF000103328009958013405F0C2FE052CF0D17C
:104D0000F8BD014B6B61F1E701000100F0B52D4EDC
:104D10002D4C337AA5440400002B02D1C368002B2C
:104D200005D01822294B1B68134093420BD18023D6
:104D30005B0100930022092125488EABFEF744FC5D
:104D4000002804D0E0602000224B9D44F0BD224D9D
:104D50000122290002A8FEF78BFB0028F2D11F4890
:104D6000FEF7ACFB0028EDD129000200FEF780FB26
:104D70001B4F386803685B6898471A4B1D683B688F
:104D80002B60194BEF18380001F0A4FA012128001C
:104D900001F008FB011E0DD02900380001F027FAB0
:104DA00000280CD0104BEA5C70231A4207D00F4B3E
:104DB0001F6005E0280001F0F5FA0028ECD1002082
:104DC0003072C0E7B8030020C4EDFFFFC803002025
:104DD000A20201003C1200004FF4000052F4000057
:104DE000B4030020B00300203C0400002006002093
:104DF00070B50C00FDF706FA1A490200200005F014
:104E000049FE1948FFF740FD18490500200005F04C
:104E100041FE102D21D00BD8681EC3B2072B0FD82E
:104E200007280DD806F074FC0D130C150C0C0C178C
:104E3000402D14D00E4A802D04D00E4A202D01D0D2
:104E400070BD0D4A20000D4905F024FEF8E70C4A1C
:104E5000F8E70C4AF6E70C4AF4E70C4AF2E70C4A8A
:104E6000F0E7C04659F40000CD03002064F40000D0
:104E700090F4000087F400006AF400006EF4000073
:104E800072F4000078F400007EF4000083F4000067
:104E90008BF4000070B525480C00FFF70DFC244B87
:104EA0003C21DB68C01A06F051FC224902002000B8
:104EB00005F0F0FD204A2149200005F0EBFDFDF74B
:104EC000A1F91F490200200005F0E4FD1D48FFF78D
:104ED000DBFC1D490500200005F0DCFD102D21D074
:104EE0000BD8681EC3B2072B0FD807280DD806F0C1
:104EF0000FFC0D130C150C0C0C17402D14D0134A7D
:104F0000802D04D0124A202D01D070BD114A2000FE
:104F1000114905F0BFFDF8E7104AF8E7104AF6E737
:104F2000104AF4E7104AF2E7104AF0E7AC03002019
:104F3000B803002095F40000C8F40000A3F40000BA
:104F400059F40000CD030020AFF4000090F40000FD
:104F500087F400006AF400006EF4000072F40000B0
:104F600078F400007EF4000083F400008BF400006D
:104F70000223FF338380FF3B8360074B30B5083348
:104F80000360002303730300044A103332CA32C3A0
:104F900012CA12C330BDC04634F50000B4F400009C
:104FA00010B5242006F0A4FB0400FFF7E1FF200069
:104FB00010BD000041220C4B10B51B6804001340CB
:104FC000934202D1FFF7ECFF10BD01234371074B61
:104FD0001B68002B05D08321C8220F20490006F052
:104FE00027F82000F0E7C046C8030020A4030020F3
:104FF000034B10B51B68DB0701D5FFF7D1FF10BDD0
:10500000A8030020054B10B51A6801231A4202D0EC
:10501000FFF7C6FF10BD4371FCE7C046A8030020A0
:10502000084B10B51B68DB0707D5242006F060FB92
:105030000400FFF79DFF200010BDFFF767FE04008E
:10504000F9E7C046A8030020244BF7B51B6804000D
:10505000DB0707D5242006F04BFB0400FFF788FF91
:105060002000FEBD18221E4B1B681340934231D115
:1050700080221C4B1C495D681C48D2022A430768E9
:105080000E681B4D5A601B4ADD611A8001911A7D22
:10509000D207FCD520211A8BFF310A431A83164A06
:1050A000DD611A800A001D7DE907FCD51D8B019981
:1050B00015431D83114D3D4005600E601049198058
:1050C000197DC907FCD5198B0A431A835A680D4903
:1050D0000A405A6001236371C2E7C046A80300205A
:1050E000C8030020004000410440800000408000D0
:1050F0000020400005A5FFFF44A5FFFFFFBFFFFF05
:1051000006A5FFFFFFFFFBFF002070470020704750
:1051100070B50C001100054A10680268D5682200BD
:10512000A84701235840C0B270BDC046B403002058
:1051300070B50C001100054A10680268156922005C
:10514000A84701235840C0B270BDC046B403002038
:1051500070B50C00150003291BD8080006F0D8FA1A
:10516000020912160C4B186803685B689847200008
:1051700070BD094B1868043000F080F9400A2860BF
:105180000024F4E780239B001380F9E708231360D1
:10519000F6E70424EBE7C046B40300208023012295
:1051A0005B015242C250704770B5802676010D00F7
:1051B000815904004B1C0DD00435090B280000F068
:1051C0007FFA330022002800A15900F0B7FA01232A
:1051D0005B42A351012070BDF0B58027040085B06B
:1051E0000391009201937F010A9B002B29D0009B21
:1051F00018051E0B030D0293FD1A0A9B36039D42F0
:1052000000D91D00E359B3420BD003992000FFF7EA
:10521000CBFF039B2200181D31003B00E65100F03C
:105220006EFA029B2A00E018019907F096FA019B9A
:105230005B1901930A9B5B1B0A93009B5B1900930C
:10524000D2E7012005B0F0BDF0B51E0080235B0160
:10525000C45885B0150003900291631C3BD0AC424A
:1052600003D90A9BEB189C4235D280235B01E318DB
:10527000AB4230D90023641B01939C4202DA6342A3
:105280000024019380270A9B019A7F011B1BBF1AF0
:105290009F4200DD1F00002C06D0029B3200181D2B
:1052A0002900230000F02BFA019A039B94466344E3
:1052B000190030193A0007F050FA0A9BE419A3428A
:1052C00006D902981B1B32192919043000F017FA6D
:1052D000012005B0F0BD0298320029000A9B04307D
:1052E000F4E7836807B5DB7A49025B0608D58023BB
:1052F00004309B0000F003FA431E9841C0B20EBD7B
:1053000080239B00009313000A0001004069FFF70F
:105310009BFFF4E713B584684902E47A5B026406F4
:1053200006D5043000F0EBF9431E9841C0B216BD1B
:10533000009313000A0001004069FFF785FFF6E7BC
:1053400083680100DB7A10B55B06D80F002B02DB07
:105350004869FFF729FF10BD836807B5DB7A49026A
:105360005B0608D5802304309B0000F0E7F9431E5C
:105370009841C0B20EBD80239B00009313000A0029
:1053800001004069FFF728FFF4E713B5846849027C
:10539000E47A5B02640606D5043000F0CFF9431EC0
:1053A0009841C0B216BD009313000A000100406985
:1053B000FFF712FFF6E7000010B50400054B08C028
:1053C00000F054F8044B200008332360002363618D
:1053D00010BDC0466CF5000080F5000070B50400FB
:1053E000043000F08FF8A3680600002B0CD0DB7AA5
:1053F0005B0609D46369002B06D1044806F078F9EE
:105400000500FFF7CBFE6561300070BD04100000A1
:10541000F0B5002304000C258B4211DA2800584314
:10542000201817788679B74207D15778C679B742DE
:1054300003D19778067AB74203D00133DBB2EBE7AA
:105440000020F0BD0300806810B5002802DB197B46
:1054500005F056FA10BD0300806810B5002804DB83
:1054600001211B7B594005F04BFA10BD002343601E
:10547000013B836002330160037370474368181E69
:1054800000D0186870474368181E01D01868000AD9
:10549000704780204000704737B56B460068DC1DC0
:1054A000036822005D6905210123A84720783EBDDD
:1054B00037B56B460068DC1D036822005D69352145
:1054C0000123A84720783EBD436870B5DB7A04000D
:1054D0005B0608D403252000FFF7DEFF284202D038
:1054E00004F0A4FFF7E770BD10B50068062103685B
:1054F0001B69984710BD10B50068042103681B693B
:10550000984710BDF0B5036885B004000E00181E62
:10551000019237D01A6803AD1268904720682A00BC
:1055200003689F215B691F000423B8476B787F2BBA
:1055300003D1AB786B70EB78AB70002E05D02A00EE
:1055400030000199FFF764FF60606368002B05D1AC
:105550002A000F215448FFF75BFF60606668002E49
:1055600012D1524C5249200005F07EFA2978AB78CE
:10557000090419436B7810221B022000194305F01F
:10558000D1FA300005B0F0BDF37A5B0617D40125DF
:105590002000FFF781FF2842FAD16368DB7A9B067F
:1055A0002ED52068662103681B69984720689921D9
:1055B00003681B699847F0235B00013BFDD16368DA
:1055C0003C495B7A59433C4B994200D919003B4B0B
:1055D0000A002068994200D91A000368DB689847DE
:1055E000206803689B689847636800280ED0DA7AC1
:1055F00051070BD5930622D42000FFF759FF21E075
:105600002000FFF755FF0306FAD4CAE7DB7A9B07B1
:105610003FD463681A6880235B049A423DD92068AE
:10562000B72103681B69984704232268200013717F
:10563000FFF761FF2000FFF747FF0120A2E72000EE
:10564000FFF72AFF63689B7A1D0005400342E0D103
:105650002000FFF749FF02AB1D70636802A99A7A28
:10566000DB7A20684A70DA0606D503689D69012353
:10567000CA183121A847CCE7026895699B0604D572
:10568000012302AA1900D218F4E70223012102AA79
:10569000F0E70B2322685371BBE780235B02934240
:1056A0009B415B420233C0E7B4F5000024060020B2
:1056B0009CF5000040420F00006CDC02001BB700AC
:1056C000436870B504000E001D1E16D0DB7A5B0621
:1056D000DD0F002B11DBFFF7B5FE2000FFF7F4FE16
:1056E0002000FFF701FF2068202103683203DB69F7
:1056F000984705002000FFF7AEFE280070BDF8B502
:105700001D00436804000F001600002B13D0FFF7A4
:1057100099FE2000FFF7D8FE2068320003683900A8
:105720001B6A9C462B006646B04706002000FFF728
:1057300092FE002E00D100252800F8BDF0B504002F
:10574000406885B0019103920293002818D0200090
:10575000FFF778FE6368029FDB7A5B0612D52000B4
:10576000FFF7C2FE2068039A036801995D6A029BF5
:10577000A8472000FFF7BFFE2000FFF76CFE02984D
:1057800005B0F0BD002F20D0FF252000FFF79CFEC4
:105790002000FFF7A9FE019B1D4080235B005D1BDD
:1057A000BD4200D93D002068039A036801995B6AF5
:1057B0001E002B00B047002807D0039B7F1B5B19FE
:1057C0000393019B5B190193DCE7029BDB1B0293B4
:1057D000D2E7000010B500F03DFC0022024B800033
:1057E000C35849331A7010BD2804002070470000C8
:1057F000F0B5040085B01E000AAB1B781030019391
:105800000BAB1B78170002930CAB1B780D000393B6
:1058100000F05AFA2000243000F056FA220000234B
:105820004832A363E3632364636413705370637249
:105830009D4205D12721084B084A094806F004FF7C
:105840002000019B25606371029B2771E371039B1C
:10585000A671237205B0F0BD68F6000079F600006D
:10586000CDF6000030B5040085B002AD00680291AD
:10587000039205F041FA6B79227AE179206800936E
:10588000002305F083FB2979029A206805F058FA75
:10589000206805F027FA05B030BD10B50400006897
:1058A00005F013FA0023637210BD000007B5837A78
:1058B00000910192002B07D09A070AD5EFF31083CD
:1058C0005A425341C37272B60099019AFFF7CAFF58
:1058D00007BDDB07F8D5C368014A9BB29360F3E7C5
:1058E00000180040837A002B05D09A0704D5C37AAC
:1058F000002B00D062B67047DB07FCD5C368024AB4
:105900009BB2D360F7E7C0460018004010B50068AE
:1059100005F0FBF910BD70B505000C008E18B442FF
:1059200006D021782800FFF7F1FF20700134F6E758
:1059300070BD0000F0B585B004000AA8007803909F
:10594000002902D1002A00D183E0002B00D180E0A1
:10595000200048300078002857D00026B446A06BBD
:1059600002920090E06B019180271E007F02BB42F3
:1059700000D3394E009DB7B247806F80002A03D014
:10598000029FBF190297AF60002917D08025019FA1
:10599000ED00BF194760019707882F4307809B1BC5
:1059A00012D0256C65442E00009D0096EE60656C5B
:1059B0006544C560102084442800D5E7274D456024
:1059C0000788274D2F40E9E725000099C36024355B
:1059D000CB60002A13D028000122224900F0EEFA01
:1059E0002000103000F0A2FA01234934237028006F
:1059F00000F09CFA039B002B2BD02378FBE70122BD
:105A00002800194900F0DAFAEEE700290AD1160059
:105A1000D518B5421DD0FF21206805F076F9307009
:105A20000136F6E70E001700CD18002A07D1AE4266
:105A30000FD03178206805F068F90136F7E7AE42FB
:105A400007D03178206805F060F9013638700137E9
:105A5000F5E705B0F0BDC046FFFF000078F7000095
:105A6000FFFBFFFFED570000D557000010B50068A1
:105A700005F0E0F903000020834203DB0C304343D0
:105A8000014A985810BDC04630F7000010B50068B4
:105A900005F0D0F9002805DB0C2343430348C01868
:105AA000406810BD01204042FBE7C04630F70000CF
:105AB00010B5006805F0BEF9002805DB0C23434350
:105AC0000348C018806810BD01204042FBE7C04673
:105AD00030F70000F0B506001036050089B0300040
:105AE00000F048F900286CD12F002437380000F06E
:105AF00041F9041E62D12800FFF7DAFFC1B230007D
:105B000000F060FA0221300000F080FA01222E49F4
:105B1000300000F053FA300000F09CFA2B4B80006C
:105B2000C5502800FFF7B2FFC1B2380000F04AFAB2
:105B30000221380000F06AFA380000F08BFA234B9B
:105B40008000C5502800FFF791FF012301002200CB
:105B5000029330002300049403940194009400F015
:105B60007BFAA8632800FFF781FF012302002100D0
:105B7000019338002300049403940294009400F0ED
:105B80006BFAE863402006F0C9FD2A004832286419
:105B9000079200280BD00123137068646B6C1022ED
:105BA0001819E96B103406F0D8FD402CF6D1079B8C
:105BB0001B78002B05D1380000F076F9300000F09A
:105BC00073F909B0F0BDC046D55700002804002085
:105BD00070B5437A0400002B03D101224381427245
:105BE000C360230048331B78002B02D12000FFF74D
:105BF00071FF18263300082120790D4D4343EB181F
:105C0000595604F0C1FE33000821A0794343EB1834
:105C1000595604F0B9FE082160794643AD1969561A
:105C200004F0B2FE034B200006CBFFF71BFE70BD55
:105C300050FE0000200400201FB5094A094B0A4904
:105C40001360002393800293013301931633009372
:105C5000162201330548FFF7CBFD05B000BDC04655
:105C60002004002000093D0060180020D40300201B
:105C7000084B1968002909D1EFF31080064A002863
:105C800003D172B6BFF35F8F013111701A68013210
:105C90001A607047E8050020E4050020084B1A68E8
:105CA000002A0CD01A68013A1A601B68002B06D132
:105CB000044B1B78002B02D0BFF35F8F62B6704796
:105CC000E8050020E4050020FF2310B50370C02381
:105CD000002104009B004170418083800C22083029
:105CE00006F057FD200010BD01230A0010B51A4030
:105CF000194208D00C4A1370033343708368002B99
:105D000000D0984710BD0223194204D006490B70F9
:105D1000C3684270F3E704231942F3D0024A1370B8
:105D2000033343700369EAE74E48004110B5FFF7BB
:105D30009FFF0C4B1B8C1B071B0F0B2B0FD80A4A0A
:105D40009900885800280AD00F2408490A78A243ED
:105D500013430B70064B1978C9B2FFF7C5FFFFF765
:105D60009DFF10BD00480041EC0500203F48004168
:105D70004E480041F8B500230278050018000B2AB0
:105D800077D93C4E2B702B780B2B07D801229A40E9
:105D90003168114204D001332B70F4E7012068E030
:105DA000FFF766FF3768344C002F2BD12022334B8E
:105DB000334859690A435A611022D9690A43DA61A2
:105DC000022223883900934323802388013A134316
:105DD00023802C4B6063BF32A36306F0DAFCC02241
:105DE0003900284806F0D5FC4022C120264B80000F
:105DF0002380264B26491A601A581140C0221204EB
:105E00000A431A5001231A00297830688A40024355
:105E100032600F261F4A880085501F4831400278A3
:105E2000B2430A43027002201C4A11788143117068
:105E3000117819431170297822698B409A432261A5
:105E400060223F21636C934363642A79636C0A4048
:105E5000134912020B400321134363646A79636C94
:105E60000A40104992050B4013436364FFF716FF85
:105E70000020F8BDE005002000480041000400407B
:105E80002005002060040020020F000000E100E077
:105E9000FFFF00FFEC0500203F4800414048004163
:105EA000FFC0FFFFFFFF3FFF70B50500FFF7E0FEFB
:105EB0006B785CB2062B2BD02B7802240B2B27D8C7
:105EC00001229A40144B1968114221D0196891435C
:105ED00019601B68002B14D14022104BDA67BFF306
:105EE0004F8FBFF36F8F21000D4A0E311388A343EC
:105EF00013800C4BDA698A43DA615A6910318A439C
:105F00005A6100242B78084A9B009C50FF232B7079
:105F1000FFF7C4FE200070BDE005002004E100E0B2
:105F20000048004100040040EC05002070B504006A
:105F3000FFF79EFE63785DB2062B30D021780225F4
:105F40000B292CD8A3780135002B28D0164B0A0139
:105F50009B185B88002B22D0A3685A1E9341E268ED
:105F6000DBB2002A01D0022213432269002A01D0A9
:105F700004221343062262700F240C482140027849
:105F80000025A2430A430270094A137007225340B6
:105F9000084A13700223084A11780B431370FFF765
:105FA0007DFE280070BDC046200500203F4800410E
:105FB0004D4800414C4800414048004102329200A7
:105FC00011507047037870B505000C0001710B2B60
:105FD00014D8FFF74DFE29780F250948294003788A
:105FE000084AAB430B4303703F23516C1C40064BE4
:105FF000240219400C435464FFF750FE70BDC046A4
:106000003F48004100480041FFC0FFFF037870B5E2
:1060100005000C0041710B2B14D8FFF729FE2978DD
:106020000F25094829400378084AAB430B43037006
:106030000323516C1C40064BA40519400C435464C7
:10604000FFF72CFE70BDC0463F48004100480041AC
:10605000FFFF3FFF00787047F0B587B001930CABAE
:106060001E780DAB1B78050002930EAB1B780078F1
:10607000039310AB1F78049105920B2802D90020DE
:1060800007B0F0BD6B78062BF9D0AB78002B00D1B0
:1060900079E01021080006F037FB0028EFD02B78BC
:1060A0003B4A1B019B181A00D168002904D0D16813
:1060B0008B4201D0D268F7E7D06001220223AA7098
:1060C000964203D0DB18022E00D01300062401886C
:1060D000114301800188A143018001881234A1434A
:1060E0000180153C018826402A4C360221400E438F
:1060F0000680029E0188284C16402140B6020E43BD
:106100000680039E0188254C16402140F6020E436E
:1061100006800188224E3A40314012030A4307218B
:1061200002800F9A114002884903D204D20C0A431C
:1061300002806A4692884280049A4260029A002A4B
:1061400008D0019A41685A43002F01D00F9CA24009
:106150008A184260059A8260039A002A09D0019A3F
:1061600084685A431300002F01D10F9A9340E3181B
:1061700083600023EA789A4203D02B78044A1B01FB
:106180009B18C3607CE7024B0001C01895E7C0462E
:1061900020050020FFFCFFFFFFFBFFFFFFF7FFFFD5
:1061A000FFEFFFFF10B50400243000F0ADF8002829
:1061B00001D1002010BD8C239B00E01800F0A4F852
:1061C0000028F6D0206803685B689847F2E710B5AE
:1061D000040080680A002430A16900F0BEF800289D
:1061E00004D00F22A38813405B01C01810BD70B506
:1061F0000025037804000E00AB420FD124222900B1
:1062000006F0C7FAA660F379102B03D0202B07D035
:106210000C2B03D1202301252370A570280070BD0D
:106220004023F8E773B503780500002B01D1012066
:1062300076BD83785B0745D50121FFF7C8FF041EB3
:1062400005D101236A78002013436B70F0E70378CF
:10625000E52BF6D02B781B0707D5EB691A0A0377D5
:1062600042771A0C1B0E8277C3772B6A9AB2A376F9
:106270001B0C23751B0A6375154B120AE2761A680C
:10628000002A1BD0637E217E1B020B4369468B8054
:10629000E37D8E1DA17D1B020B433380310001A8DD
:1062A00090476B46FF2231789B88A17571781A4020
:1062B0001B0A22766376E175A274E3740422AB783C
:1062C0009343AB70A868FFF76DFF0028B9D0AEE725
:1062D0001C06002010B50400FFF7A4FF0023237064
:1062E00010BD70B505000C00081E07D007F0D4F8EB
:1062F0002B680200210028005B68984770BD10B52C
:1063000003689B68984710BD70B5012503780400A9
:106310002B420AD0060043680C36816832001868A8
:10632000FFF7EDFF051E02D10025280070BD636850
:106330001A7A022A04D00122237893432370F4E7C7
:1063400021781142F7D0A2681969186851183200F3
:10635000FFF7D5FF0028EED1E6E7836870B50400AB
:106360000E0015008B420AD0FFF7CEFF002801D1A6
:10637000002070BD6B070AD50023A660237003229E
:106380002000154022780C3015432570F1E72200DB
:106390006368310018680C3203681B68984700284E
:1063A000EAD1E5E7F8B501230D000021C360431DE4
:1063B000C1718062D9778C2301229B00C31852429D
:1063C000C2620400060058608C20800021542436EC
:1063D0009A608D4219D0042D01D90020F8BD0A0021
:1063E0003000FFF7BAFF0028F7D06B1E1B01C3185F
:1063F000BF33FF331B785B06EFD11B352D014019EE
:106400000589C1882D040D43E7D000222900300002
:10641000FFF7A3FF0028E0D08022037BC17A1B0294
:1064200092000B439342D8D1027C531E012BD4D847
:10643000C37B817B1B020B43CFD02272467B092793
:10644000731E637100232671A37101339E4208D02D
:10645000013F002FC1D0A1795B000131DBB2A171F6
:10646000F4E7C37D817D1B020B430ED1811DC97FE3
:10647000431DDB7F09021943C31DDB7F1B04194346
:1064800003000833DB7F1B060B432361C17B867B44
:10649000090231434919A1615343867C477C360286
:1064A0005B183E4323626681817C427C0902114372
:1064B0001F4A490189184912CB186361017DC27CCA
:1064C000090211430DD1421CD17F821CD27F1202DE
:1064D0000A43C11CC97F09040A43011DC97F09067B
:1064E0001143A279EB1A5B18D3405A1CE261114A9E
:1064F000934203D80C230120E3716FE70E4A9342C5
:1065000001D81023F7E7020003002D3212782C3354
:106510001B7812021A4303002E331B782F301B0402
:106520001A4303781B06134323622023E3E7C04684
:10653000FF010000F40F0000F4FF000010B5002080
:1065400002F02AF910BD10B502F020F910BD0000CC
:1065500010B50100014800F019FA10BD44060020F2
:1065600010B502F0DDFA10BD70B500F0E9F80024B6
:106570000500AC4205D02000013400F089FDE4B2F2
:10658000F7E770BDF0B593B001AC0D001600002127
:10659000422220001F0006F0FCF80020412F4AD9BB
:1065A00026486B1C08902648A57020846846073052
:1065B000C577A57208252349DBB2A180224902A82C
:1065C00021812249C377A181FD392148FF396174B6
:1065D0001F31A1740A901F490BA8057091200691E4
:1065E000012100012176608503310CA80170E1765C
:1065F0002D31194A69440B70A3763323228002227D
:106600000A216B441A700DAB1970144BE270A3860B
:106610003B236B441A70A2730FAB3E321A703F23B8
:10662000393A6B441A700E4B210030003B32109304
:1066300006F093F8422013B0F0BDC04624020205D4
:10664000240600000202000009040000010200000C
:106650000705800320010524080B00000705000042
:106660000580024008B4024B9C46103808BC6047C5
:106670008565000013B56B460268D971073354680D
:1066800019000122A04716BD10B5007E0024FF2886
:1066900005D000F0D1FC041E01D103F0C7FE20009C
:1066A00010BD13B5007EFF2802D10120404216BD67
:1066B0006B46DC1D210000F0DFFC0028F5D02078BF
:1066C000F5E713B5007EFF2809D06B46DC1D0122DB
:1066D000210000F0BDFC002801D0207816BD01206B
:1066E0004042FBE710B5007EFF2801D000F0D0FC4F
:1066F00010BD10B5037E0020FF2B02D0180000F063
:106700001DFD10BDF8B5037E05000E00170000202A
:10671000FF2B11D01400002C0DD0287E00F064FC5B
:10672000002808D022003100287E00F0EDFC241A59
:106730003618002C01D1381BF8BD03F077FEEAE7CC
:10674000014B18787047C046400600200023FA220B
:1067500043604361054B920082601A00303303614D
:10676000FF230832026003767047C04688F70000B6
:1067700010B5037EFF2B0DD1074A1378002B09D1EA
:106780000121117001000376044B1031436104486C
:1067900000F068F810BDC0464006002079F7000000
:1067A0004406002007B500290BD1002809D169460D
:1067B00000F032FC9623009ADB009A4201D100F0EF
:1067C00083FB07BD10B50248FFF7C0FF10BDC046F0
:1067D0002406002070B5040088B01D4E03AD3100C2
:1067E0001222280005F0B9FF230007CD07C32A684D
:1067F00031001A60AA88092625009A8018353200CF
:106800006846123105F0A9FF32006946280005F0FC
:10681000A4FF104B6561E435EB618022230020006A
:10682000FE335200DA832D300133FF3ADA7700214C
:106830001332FF3005F0ADFF074B04226B62074BAC
:10684000AB62074BEB62A0235B00E25408B070BD63
:10685000D8F70000090000010904000065F10000FC
:10686000BCF700000300F0B5FE3385B001935A8BEE
:1068700043690E009C18019B05009B8B9B1A02002C
:10688000FF320292517F3268300017689BB22200BB
:10689000B8478446002802D1002005B0F0BD23008F
:1068A000A027634403937268029B7F0003998C4284
:1068B0002DD2617804291AD1E678002E12D10299DE
:1068C0000298497F01314177002A0BD0E95D072901
:1068D00008D808004830800042512172EA5D013238
:1068E000EA55320021780029D6D06418DEE7052960
:1068F000F8D1A1787F2906D9997F481C9877A0788C
:106900000143A170EEE7D97F481CD877F7E7019BD8
:10691000588B604480B258836B69FF359870000AC9
:10692000D8706A7F01201A71B7E70000F0B58BB00C
:1069300002A80C0000F0CEFA002501900234019A62
:10694000EBB29A421BD9104F1022390006A805F06D
:1069500004FF02AB5E5D10220F2302A989183340A9
:10696000CB5C06A86380390005F0F7FE102202AB6D
:1069700036119B189B5D013523800434DFE7019BB2
:106980005800C0B20BB0F0BDC7F7000070B50400EE
:106990000D000126FFF71EFFE121064BA671A38023
:1069A00049020548FFF7E4FE280000F04FFA3000E6
:1069B00070BDC046EF0200002406002010B501F0B3
:1069C000CDFE10BD10B501F0D5FE10BDF0B5040030
:1069D00085B0002940D0032950D0A0235B00C35CC0
:1069E00000208B4248D9483189000B59020001939D
:1069F000A2235B009C46A444019B1E181B5C002B39
:106A000000D18BE019004031C9B201295ED9F42BC5
:106A10005CD859B2002938DB01218026404D36016F
:106A20005D19B54252D34018802149028B4200D2F1
:106A30006DE01E2A00DD71E03A493B4E5B189D0A6D
:106A4000AD196646510075529B05384D9B0D61444A
:106A50005B1902324B80CFE70300FC335A6AA22352
:106A60005B00C2520122C020A123013280005200EB
:106A700002435B00E252E01805B0F0BD0100433173
:106A8000FF31FFF753FF0200EDE719001F25A9436F
:106A9000C0291DD129002B401D39751C761803967D
:106AA0003F272E780296BE43802E0FD1029E9B0177
:106AB0003E403343039E0135AE42F1D1022917D146
:106AC000F0261D00F600803DB542A6D3013093E7C5
:106AD0000F211D008D43E02D02D10B400C39DCE766
:106AE00007211D008D43F02DF0D10B400339D4E771
:106AF000032904D1F8260E4D36025D19E4E78025FE
:106B000008496D035918A942E0D2042185E7202ADB
:106B100004D0654651004B5301326DE7D2B2A2E773
:106B20000028FFFF0000FFFF00D8FFFF00DCFFFF91
:106B300000F8FFFF0048704744060020014B5869E9
:106B40007047C0464406002010B50A000100024804
:106B5000FFF73CFF10BDC04644060020024B1868FA
:106B6000002800D000697047C807002070B50848A9
:106B70000D00046811001A0004AB20001B88002CD3
:106B800004D06469201E01D02800A04770BDC04613
:106B9000C807002010B5074C0800246811001A002F
:106BA00002AB1B88002C03D0A469002C00D0A047A6
:106BB00010BDC046C807002070B586B00D00140097
:106BC0000021172268461E0005F0E3FD0020162E66
:106BD00015D96A460B4B957013800B4B6946019390
:106BE00007235372023B9372084B20009381084B9A
:106BF000049340231375172205F0AFFD172006B04C
:106C000070BDC046090400000208065002400000A2
:106C100007058002084B10B508330360030000210C
:106C200001220400503341601A700830473205F0E9
:106C3000B0FD200010BDC04604F8000010B52424AB
:106C40004C430019C361029B8261036210BD10B501
:106C500024244C4300194262038510BD24234B4376
:106C6000C0182A300270704710B524244C43001914
:106C7000C360029B8260036110BD24234B43C01894
:106C80004261704710B5010004000448FFF7EAFDB7
:106C9000002801D0024B1C6010BDC04644060020F5
:106CA000CC070020034B1B68181E01D05033187806
:106CB0007047C046CC070020F7B501931E4B0092E9
:106CC0001A680F00002A35D02423190041435118B7
:106CD0008E69002E00D1194E4343D318DD69002D73
:106CE00000D1174D242358431218146A002C00D1E8
:106CF000144C300006F0D0FB0200082800D908220E
:106D00003100380005F029FD280006F0C5FB02001F
:106D1000102800D910222900009805F01EFD20003F
:106D200006F0BAFB0200042800D9042221000198D1
:106D300005F013FDF7BDC046CC07002065F100004B
:106D4000F3F700006EF1000070B50A4D04002E68E4
:106D5000301E0ED024236343F6187369002B02D033
:106D600098472A36307024235C43286800192A305B
:106D7000007870BDCC070020064B10B51B680400DE
:106D8000002B06D0242060431818436A0B60038D43
:106D9000138010BDCC07002010B51C000B7800221A
:106DA0001E2B0AD000232022052100F059FE044AA0
:106DB000044B1288A34200D9221C90B210BDC046D9
:106DC00000F80000FFFF000010B5040008001900E3
:106DD000074B1A68002A08D024236343D21893680B
:106DE000002B02D0029A984710BD01204042FBE7D9
:106DF000CC07002010B5040008001900074B1A68E2
:106E0000002A08D024236343D218D368002B02D071
:106E1000029A984710BD01204042FBE7CC070020B2
:106E2000064B02001B6810B5002B06D024205043EF
:106E30001B181B69002B00D0984710BDCC07002001
:106E400010B5002002F082FB10BD00002023174A7D
:106E500010B5D1690F200B43D361012214490B787F
:106E600013430B70134B19788143197006211C785A
:106E70002143197010490C7822430A701A78024095
:106E80001A70602219780A431A700C4B0C4A5A8007
:106E90005A78D209FCD1C1220A4992008B581B02B0
:106EA0001B0A8B50FFF74AFB10BDC0460004004090
:106EB000584400413C44004159440041000C00400A
:106EC0000640000000E100E010B5FA2003F034FEB7
:106ED00010BD00007FB56A4601001000074B70CB63
:106EE00070C01B680360002013581B681BBA0B504E
:106EF00004301028F8D104B070BDC04610F800006E
:106F00000048704720F80000F7B5234F0B003968A0
:106F100006001400081E02D0002B01D00120FEBD87
:106F200015786D06AD0F012D1FD01800022DF6D17A
:106F30005278012A10D0022AF0D1637921791B02FC
:106F40000B43072BEBD16B469D1D2800134905F021
:106F500004FC2B88124A03E0CA69002ADFD01378A8
:106F60002100300002F0BAF8D9E75378222BD5D1AE
:106F7000E37892781B0213435A1E934130000B763C
:106F8000210002F093F83A68136A002BC6D0107EF5
:106F900098472800C3E7C046D00700201100002012
:106FA0000900002070B5050010350400280001F02C
:106FB000D7FA3F2813D90020E17801F01FFD0028FF
:106FC0000DD0280001F0CCFAE1783F2808D98E23B3
:106FD0009B00E218F93B0020FF3B01F041FD70BD32
:106FE000002001F025FDFAE710B5040001F0A6FB32
:106FF000002801D1002010BD01F0A8FB0028F9D124
:10700000AE20012380004443024800190079184053
:10701000F1E7C046D40700200B00AE2189004843A9
:1070200010B50449072209180631180005F095FB30
:1070300010BDC046D4070020AE239B00584310B5B6
:10704000024B1030C01801F074FA10BDD4070020B4
:1070500070B5AE24A40044432000064E103092B216
:10706000801901F09DFA0500A019FFF79BFF280089
:1070700070BDC046D4070020AE239B00584310B516
:10708000024B1030C01801F0A0FA10BDD407002048
:10709000F7B5040001F052FB002801D10020FEBD2D
:1070A00001F054FB051EF9D1AE20800044432600B8
:1070B000144F2436F619300001F03BFA0028EDD0C9
:1070C0003B1928009978019301F098FC0028E5D03D
:1070D0009E239B00E418E71939004022300001F09C
:1070E0005FFA019B04009978002808D003003A0059
:1070F000280001F0B5FC0028D0D02000CFE701F037
:1071000097FCFAE7D407002070B5AE24A4004443EE
:10711000094B2434E418050092B2200001F085FAEE
:107120000600200001F005FA3F2802D92800FFF7E9
:10713000AFFF300070BDC046D4070020AE239B00D7
:10714000584310B5024B2430C01801F009FA10BDA5
:10715000D407002037B5AE22104C00212000920049
:1071600005F017FBFF230E4A01256371E28000231F
:107170000822258163812273802464002200009309
:1071800008492B00084801F0BDF92B0000952200AA
:107190000649074801F0B6F937BDC046D4070020BC
:1071A00000C2FFFF0C080020E40700200C090020AB
:1071B000F807002010B505220021074805F0E9FA7C
:1071C000064801F03BFA064C200001F037FA012195
:1071D000200001F03FFA10BDD4070020E407002092
:1071E000F8070020F0B54B7907000C0085B0022BA2
:1071F00003D00025280005B0F0BD8B79022BF8D113
:107200001E4EB378002BF4D18B78092533700978A2
:10721000641803E02378ED18ADB2E4186378242BEA
:107220001DD19542F6D96378042B14D163790A2BCA
:1072300011D1237838000393E118114B0193114BBE
:10724000009302231A0001F0B1FB0028D1D0039B68
:107250000E35ED18ADB23000FFF7A4FECAE7052BDE
:10726000E1D12100380001F05FFB0028C1D0A378F4
:1072700073702378ED18ADB2E418D4E7D40700207A
:10728000D6070020D7070020F8B5050060200B00C6
:107290001100127800240240202A43D12A4F4A7953
:1072A0000E7938781202324390423BD14878203828
:1072B000032837D804F02CFA02151838002B06D111
:1072C00007232800214A01F009FF01242AE0022BAC
:1072D000FBD11F4B002BF8D000201C4900E000BF61
:1072E000F3E7002BF1D1EBE7002B03D1280001F0ED
:1072F000DDFEEAE7022BE8D10124CD788A7821006F
:107300002D0215432E0013483D71A94301F0A2F947
:10731000114B2640002BD8D06A08310000202240B3
:10732000FFF740FA2000F8BD002BDFD0022BCCD1B4
:107330000A4B002BC9D08B78C97800200902194369
:1073400000E000BFC1E7C046D4070020DA070020F4
:1073500000000000F8070020A56700000000000002
:10736000F7B5314C019000911D00E3788B4205D0B8
:10737000A3788B4211D000252800FEBD2B4F2C494D
:107380003800AAB201F051F92A4B002B0BD12A4B3D
:10739000002B1DD12000FFF705FEA378009A934231
:1073A0001ED00125E8E763790026FF2BEFD0AE421F
:1073B000EDD01F4B62799B5D9A4207D1380001F0F6
:1073C000C8F8002802D1617900E000BF0136EEE77D
:1073D000380001F0BEF80028DCD100E000BFD9E79A
:1073E000164B002B02D0002000E000BF0020FFF76A
:1073F0004FFE0028D5D1124801F09BF80028D0D1CB
:10740000002DCED03F232E001E401D42C9D1A178B1
:10741000019801F0F3FA051EC3D033003200A178C1
:10742000019801F01DFBA7E7D4070020E407002026
:107430000C0A002000000000000000000000000016
:10744000F807002010B58C220021024805F0A1F9B0
:1074500010BDC0468C0A002010B50020FFF7F2FFD7
:1074600010BD0000F7B50C00637907001100032B75
:1074700002D000252800FEBD07252279554312358C
:107480008D42F6D8184E71780029F2D1300021785B
:1074900088306118016048782128EAD108780918F5
:1074A0001248019012480090380001F07FFA00283D
:1074B000DFD0A379012B01D1E379F370012333717C
:1074C000A3780222337033008833196809480731E2
:1074D00005F043F9B1780029CCD040233800064AA2
:1074E00001F0BEFAC6E7C0468C0A00208D0A0020D3
:1074F0008E0A0020920A0020D40A0020F7B51F252A
:107500001400127806000B001540012D01D0002058
:107510002FE0554F207939788842F8D1602110004A
:1075200008400A4212D02028F1D1607801380A2898
:10753000EDD804F0F7F82B007D008300ECFFECFFA2
:10754000ECFFECFFECFF49006B008900002B01D041
:1075500001200EE06278062AD9D1E278212A09D1E9
:1075600088373A68002AD2D021003000137801F021
:10757000B5FDFEBD222ACAD11800FFF7EFFA0200BE
:10758000FB882100300001F0A9FDE1E7002BDFD1ED
:10759000E579A079A1782D02E2780543002910D081
:1075A000012D0ED939720127013D304BADB20020BB
:1075B0000095FFF7DBFA3B189BB22D4A002BA6D0B3
:1075C000DFE71F002A4BF2E7002B07D1E379A2790E
:1075D0001B021343274A402B99D8D2E7022BB7D17D
:1075E000E079A379A17800021843E278214B0029C1
:1075F00007D0012805D91C788C4202D101381E4BD6
:1076000080B200900020FFF7C5FAA1E7002B9FD1C0
:10761000E1781A4A7971002A05D0180000E000BF0D
:10762000002800D173E72100300001F03FFD8FE713
:10763000002B00D08CE7124A0133A2E7002B00D0C8
:1076400086E7104A01339CE7002BECD0022B00D0D8
:107650007EE7A1780C4B3971002B00D178E7002030
:1076600000E000BF74E7C0468C0A0020950A0020A5
:10767000940A0020D40A0020D50A0020000000004F
:10768000910A0020900A00200000000073B5134DFD
:107690000400A8786A7888420DD00024914208D16D
:1076A0000F4A0124002A04D000200E49DAB200E07B
:1076B00000BF200076BD9042F2D000220A4E9BB25D
:1076C0001100100000933300FFF764FA20004023FC
:1076D0003200A97801F0C4F90400EAE78C0A00201E
:1076E00000000000940A0020D40A002070B50500B4
:1076F00010350400280000F033FF3F2812D9002085
:10770000A17801F07BF900280CD0280000F028FFB8
:10771000A1783F2807D92200393240230020FF32C8
:1077200001F09EF970BD002001F082F9FAE770B512
:10773000040024340500200000F0FBFE002801D1E5
:10774000002070BD0020697801F058F90028F7D0BA
:107750002E007936FF3631002000402200F020FF55
:107760006978041E08D003003200002001F078F987
:107770000028E5D02000E4E701F05AF9FAE700001C
:10778000DC2213B5002400215200094805F001F85D
:107790000123802207490094074800F0B3FE01232B
:1077A000802206490094064800F0ACFE13BDC04696
:1077B000501900208819002060190020081A0020A4
:1077C0007419002010B510220021054804F0E1FFD3
:1077D000044800F033FF044800F030FF10BDC046FD
:1077E000501900206019002074190020F0B585B0F0
:1077F000039002924B790D00012B03D0002420004E
:1078000005B0F0BD8B79012BF8D1CB79002BF5D1E8
:1078100009788CB26D186B78242B07D1029B9C429F
:10782000ECD82B78E418A4B2ED18F4E7042BE5D1DA
:107830006B79012BE2D1AB79032BDFD1EB79002BF4
:10784000DCD11B4F7978BA78114301912DD1AB78F7
:107850003B702E78A419A4B2AE192B79019A9342E9
:1078600005D83800FFF742FFC9E7BB7010E0029B64
:107870009C42F6D87378052B12D13100039801F0A1
:1078800053F80028BAD0B378DA09012AEDD17B7019
:107890003378E418F618019BA4B20133DBB20193EC
:1078A0003378E418A4B2F618D7E71B70FFDEC046A1
:1078B0005019002000207047F8B51D4D1C00AB7812
:1078C00006008B4205D06B788B4212D0002420003A
:1078D000F8BD18491848A2B200F0A7FE174B002BBC
:1078E00002D0002000E000BF2800FFF7FFFE0124C7
:1078F000EDE72800FFF71BFF0028F8D1104800F043
:1079000018FE0028F3D1002CF1D03F2327001F40A0
:107910001C42ECD13000697801F070F8041EE6D00A
:107920003B003A003000697801F09AF8CFE7C04692
:1079300050190020881A0020601900200000000063
:1079400074190020F0B5294C0600E18A85B049BAC7
:1079500089B2002938D0A568280003F0F7FE83B269
:10796000002B31D02369217D1B0A090619430BBA6C
:107970000393A36B81B21800029303F06DFF039B86
:107980000A00C118029B1A4FED1A8023607B9B00EE
:107990009D4200D91D003B000095FFF715FA021E1D
:1079A00014DAA26BA36830009B1AA36223000122A1
:1079B0002C331A700F4B0022A38723003E331A701A
:1079C0002E34217801F07CF805B0F0BD2E342178FA
:1079D000002805D103000090300000F088FFF3E795
:1079E00083B23A00300001F03BF8EDE7180D0020BB
:1079F000180B002005200000154B70B50500154C34
:107A0000002B15D0607B00E000BF002810D1A368D8
:107A10000122A36223002C331A700F4BA38723008B
:107A20003E3318702F342800217801F049F870BDDA
:107A3000A26BA3689B1A80229200934200D9130084
:107A40002F3428002178054A9BB201F009F8EEE7AF
:107A500000000000180D002007270000180B002070
:107A6000054810B504003C34217001003E303D3122
:107A7000037001200A7010BD180D002010B54022BF
:107A80000021024804F085FE10BDC046180D0020FC
:107A900010B540220021024804F07BFE10BDC04614
:107AA000180D002073B54B790400082B01D000207D
:107AB00076BD8B79062BFAD1CB79502BF7D1162ACC
:107AC000F5D90D4D8A782B002D331A700B782E00C6
:107AD000C9182B002E33019302232F361A0000966B
